:020000040800F2
:10000000B0060020CD010008D5010008D701000886
:10001000D9010008DB010008DD0100080000000034
:10002000000000000000000000000000DF010008E8
:10003000E101000800000000E3010008E5010008FC
:10004000E7010008E7010008E7010008E7010008F0
:10005000E7010008E7010008E701000815030008B0
:10006000E7010008E7010008E7010008E7010008D0
:10007000E7010008E7010008E7010008E7010008C0
:10008000E7010008E7010008E7010008E7010008B0
:10009000E7010008E7010008E7010008E7010008A0
:1000A000E7010008E7010008E7010008E701000890
:1000B00025070008E7010008E7010008E70100083C
:1000C000E7010008E7010008E7010008E701000870
:1000D000E7010008E7010008E7010008E701000860
:1000E000F1020008E7010008E7010008E701000845
:1000F000E7010008E7010008E7010008E701000840
:10010000E7010008E7010008E7010008E70100082F
:10011000E7010008E7010008E7010008E70100081F
:10012000E7010008E7010008E7010008E70100080F
:1001300000F002F800F03AF80AA090E8000C8244BF
:100140008344AAF10107DA4501D100F02FF8AFF29C
:10015000090EBAE80F0013F0010F18BFFB1A43F0A5
:1001600001031847CC100000EC100000103A24BF27
:1001700078C878C1FAD8520724BF30C830C144BF0C
:1001800004680C607047000000230024002500264E
:10019000103A28BF78C1FBD8520728BF30C148BFEA
:1001A0000B6070471FB51FBD10B510BD00F036F8CD
:1001B0001146FFF7F7FF00F09BFC00F054F803B482
:1001C000FFF7F2FF03BC00F057F800000948804732
:1001D00009480047FEE7FEE7FEE7FEE7FEE7FEE729
:1001E000FEE7FEE7FEE7FEE704480549054A064B41
:1001F00070470000C506000831010008B00000206B
:10020000B0060020B0020020B00200207047704706
:1002100070470000004870474C0000207546FFF70B
:10022000F9FFAE4605006946534620F007008546B3
:1002300018B020B5FFF7D8FFBDE820404FF000060A
:100240004FF000074FF000084FF0000B21F00701BE
:10025000AC46ACE8C009ACE8C009ACE8C009ACE801
:10026000C0098D46704710B50446AFF300802046A4
:10027000BDE81040FFF7A3BF01491820ABBEFEE761
:10028000260002007047000010B50121022000F096
:1002900007F90020074948804FF6FF708880472003
:1002A0000880054800F0E0FA0121034800F0B9FA9F
:1002B00010BD0000400000200004004010B50021E7
:1002C000054800F0CEFA00BF034800F0B6FAB0F5DA
:1002D0007A7FF9DB10BD00000004004010B5044631
:1002E00002E0FFF7EBFF641E002CFAD110BD000006
:1002F00010B54FF4005000F01FF840B104480068FA
:10030000401C034908604FF4005000F00FF810BD86
:100310000400002010B5022000F00EF828B11C20C7
:1003200000F0B2F8022000F001F810BD01490860A9
:10033000704700001404014001460020034A12687F
:100340000A400AB1012000E0002070471404014077
:100350002DE9F0410246002500260020002300245C
:10036000002791F803C00CF00F0591F803C00CF0C2
:10037000100CBCF1000F03D091F802C04CEA050547
:1003800091F800C0BCF1000F31D0146800202BE0C0
:100390004FF0010C0CFA00F3B1F800C00CEA0306B0
:1003A0009E4220D183004FF00F0C0CFA03F7BC43A0
:1003B00005FA03FC4CEA040491F803C0BCF1280FD1
:1003C00006D14FF0010C0CFA00FCC2F814C00AE090
:1003D00091F803C0BCF1480F05D14FF0010C0CFAA5
:1003E00000FCC2F810C0401C0828D1D31460B1F83A
:1003F00000C0BCF1FF0F34DD546800202EE000F196
:10040000080C4FF0010808FA0CF3B1F800C00CEA30
:1004100003069E4221D183004FF00F0C0CFA03F724
:10042000BC4305FA03FC4CEA040491F803C0BCF198
:10043000280F05D100F1080C08FA0CF8C2F8148056
:1004400091F803C0BCF1480F07D100F1080C4FF040
:10045000010808FA0CF8C2F81080401C0828CED316
:100460005460BDE8F0814161704701617047000050
:1004700000F01F0201219140024A430942F8231073
:100480007047000080E100E000F01F020121914070
:100490004209920002F1E022C2F800117047000008
:1004A00029B1064AD2690243044BDA6104E0034AE7
:1004B000D2698243014BDA617047000000100240AC
:1004C00029B1064A92690243044B9A6104E0034A47
:1004D00092698243014B9A6170470000001002400C
:1004E00030B500210022002400232D4D6D6805F059
:1004F0000C0121B1042905D0082923D105E0294D9B
:10050000056022E0274D05601FE0254D6D6805F46C
:100510007012234D6D6805F48034022505EB92427C
:100520001CB9214D554305600BE01D4D6D6805F468
:1005300000351DB11C4D5543056002E0194D554372
:10054000056002E0174D056000BF00BF144D6D68E7
:1005500005F0F0010909154D6B5C0568DD4045604B
:100560000F4D6D6805F4E061090A104D6B5C45683C
:10057000DD4085600A4D6D6805F46051C90A0B4D78
:100580006B5C4568DD40C560054D6D6805F4404114
:10059000890B074D6B5CC568B5FBF3F5056130BD94
:1005A0000010024000127A0000093D0008000020FF
:1005B0001800002010B501210820FFF781FF04205A
:1005C0000449C87040020880032088700248FFF781
:1005D000BFFE10BD20000020000C014010B500F04F
:1005E00001F810BD0CB50020019000903348006860
:1005F00040F480303149086000BF3048006800F4A2
:10060000003000900198401C0190009818B90198A2
:10061000B0F5A06FF1D12948006800F4003010B1A6
:100620000120009001E0002000900098012843D1B3
:100630002348006840F0100021490860084600681F
:1006400020F0030008600846006840F002000860DF
:100650001A4840681949486008464068486008469A
:10066000406840F4806048600846406820F47C1090
:1006700048600846406840F4E81048600846006852
:1006800040F08070086000BF0C48006800F0007007
:100690000028F9D00948406820F003000749486065
:1006A0000846406840F00200486000BF03484068C8
:1006B00000F00C000828F9D10CBD00000010024029
:1006C0000020024010B51348006840F001001149B5
:1006D000086008464068104908400E4948600846CE
:1006E00000680E4908400B4908600846006820F47D
:1006F000802008600846406820F4FE0048604FF4FF
:100700001F008860FFF76AFF4FF00060044908602F
:1007100010BD0000001002400000FFF8FFFFF6FED1
:1007200008ED00E02DE9F0410121880700F088F88C
:10073000002861D031480078401C304908700846D4
:10074000007800280CDD08460078012808DC282005
:10075000FFF79AFE4FF480712948FFF786FE47E0C5
:1007600026480078012843DD2448007802283FDC31
:100770002820FFF77DFE4FF480712148FFF773FEBC
:1007800020480068401E204908601E48006808B9DB
:100790000020086019480078022829D11B48006809
:1007A000164909780844194908601749096848003A
:1007B00000F042FB07460022154B00F0E5F9054624
:1007C00000F0B0F9044613480168204600F09CFB95
:1007D0001049086010490F48006800F082FC02D2FE
:1007E0001C20FFF745FE00200449087005490860F9
:1007F0000121880700F012F8BDE8F0810000002018
:1008000000080140040000202C00002028000020E7
:1008100000207C402400002000002041CA430282C6
:10082000704721B1028842F00102028004E0028890
:100830004FF6FE731A40028070470146888C70475D
:1008400030B50246002000230024158A05EA010382
:10085000958905EA010413B10CB1012000E00020E4
:1008600030BD818470470000002202881D4B9842F1
:100870000ED01D4B98420BD0B0F1804F08D01B4BCF
:10088000984205D01A4B984202D01A4B984204D194
:100890004FF68F731A404B881A43174B984207D074
:1008A000164B984204D04FF6FF431A40CB881A43A8
:1008B00002808B8883850B8803850A4B98420BD076
:1008C000094B984208D00E4B984205D00D4B9842E8
:1008D00002D00D4B984201D10B7A0386012383820B
:1008E00070470000002C014000340140000400402B
:1008F00000080040000C00400010004000140040C0
:1009000000400140004401400048014010B5012171
:100910000820FFF7D5FD18200549C8704FF4806006
:100920000880032088700348FFF712FD10BD000007
:1009300020000020000C014021B1828942F40052C5
:10094000828104E082894DF6FF731A4082817047EC
:1009500010B501218804FFF7A3FD4FF41650094993
:100960000860002088810C20488100200881C88010
:100970008880054800F00AF801210348FFF7DCFFF2
:1009800010BD000030000020004800402DE9F04775
:1009900086B005460E460024A24600BFA1460027A9
:1009A000B08900B100BF2F462C8A4CF6FF7004407E
:1009B000F08804432C82AC894EF6F3100440B088D2
:1009C00031890843718908430443AC81AC8A4FF6EE
:1009D000FF400440B0890443AC8201A8FFF780FDCA
:1009E0001F48874202D1DDF810A001E0DDF80CA01D
:1009F000A88900F4004040B10AEBCA0000EB0A10DD
:100A000031684900B0FBF1F807E00AEBCA0000EBDF
:100A10000A1031688900B0FBF1F86420B8FBF0F0EF
:100A200004012009642101FB1089A88900F4004019
:100A300040B1322000EBC900B0FBF1F000F007003C
:100A4000044308E0322000EB09106421B0FBF1F010
:100A500000F00F0004432C8106B0BDE8F0870000D1
:100A60000038014070B505460C4665B9012C04D12B
:100A700004210B48FFF7F9FC10E04FF4807109489E
:100A8000FFF7F1FC0AE0012C04D104210448FFF730
:100A9000ECFC03E004210248FFF7E5FC70BD000018
:100AA000001401400008014010B501210420FFF7A7
:100AB00007FD10200B49C8700001088003208870D2
:100AC0000948FFF745FC01212020FFF7F9FC102021
:100AD0000449C87004200880032088700348FFF789
:100AE00037FC10BD1C00002000080140001401402C
:100AF000FFF7CAFBFFF75EFDFFF72AFFFFF706FFD0
:100B0000FFF7D2FF0DE001210846FFF7ABFF64209D
:100B1000FFF7E4FB00210120FFF7A4FF6420FFF7AB
:100B2000DDFBF0E721F00042A2F16052B2F5801F38
:100B300001F0004328BFD2F17F6C0BD95FEA001CA3
:100B400043EAC20242EB507018BF704728BF20F042
:100B500001007047B2F5801FBCBF184670474FEACE
:100B6000410C1CF5001F02D2084600F0B5BA70B562
:100B700000F075F900000089FFF7F6BF4FF0004064
:100B8000A0F58000704700002DE9C04130B4DFF8C7
:100B9000A0C23CEA111418BF3CEA131400F0EC8028
:100BA00081EA03051CEA111444EAD57418BF1CEA53
:100BB000131500F0C780A4EB05044FF0004545EA8B
:100BC000C12145EAC32341EA505143EA525304F19B
:100BD0007F74994204F500344FEAC0204FEAC222E4
:100BE00008BF904200F09C804FEA13650FF2401658
:100BF000765D4FEA134506FB05F7C7F1807706FBE4
:100C000007F74FEAD737A7FB03687642C8F5803865
:100C1000A7FB06CE38BFA8F1010807FB08E64FF096
:100C2000000EA6FB028CE6FB03CEDCF1000CCEF13D
:100C3000004E38BFAEF1010EA6FB0C584FF0000776
:100C40004FF00005E6FB0E87A1FB08C6A0FB07CE10
:100C500016EB0E0645F10005E1FB076515F1E04EC8
:100C60007EBFA4F580345FEA46066D4116F1800729
:100C700045F100054FEA17274FEA066647EA056780
:100C8000A6F1DE46B6F1805F4FEA15251FD938463A
:100C900024F0010C05EBC471BCF1FE6F01EB0C11EB
:100CA00002D8F0BCBDE8008124425CBF01F5801E83
:100CB0009EEAC47F02D4F0BCBDE80081244238D44F
:100CC000F0BCA1F1C041BDE8004100F016B94FEA07
:100CD000D22242EA43524FEAD323A7FB02864FEACD
:100CE000D02040EA415007FB03661EEA0E0F4FEA90
:100CF000D12105FB026658BFA6EB0056B6EB0056A5
:100D00004FEA520E4EEAC37E18EB0E0E56EB530E10
:100D1000BDD518EB02085E417F1C55F10005B6E712
:100D20004FF480154FF000074FF000064FF0000819
:100D3000ADE7F0BC4FF0000001F1C04101F000410F
:100D4000BDE8008111EA0C1F0CEA131500D00CE07D
:100D500013EA0C1F00F025804FF00000F0BC81EA80
:100D6000030101F00041BDE80081F0BCBDE8004195
:100D700081EA030100F0C1B8F0BCBDE8004170B5E4
:100D800000F06DF8097EFC3E00F007B881EA03012F
:100D90004FF0000001F00041704781EA030100F0CC
:100DA000ACB8F0BCBDE800414FF0000021497047ED
:100DB000FFFDFBF9F7F5F4F2F0EEEDEBE9E8E6E420
:100DC000E3E1E0DEDDDBDAD8D7D5D4D3D1D0CFCDA7
:100DD000CCCBCAC8C7C6C5C4C2C1C0BFBEBDBCBBE0
:100DE000BAB9B8B7B6B5B4B3B2B1B0AFAEADACABDB
:100DF000AAA9A8A8A7A6A5A4A3A3A2A1A09F9F9EB5
:100E00009D9C9C9B9A999998979796959594939366
:100E1000929191908F8F8E8E8D8C8C8B8B8A8989FD
:100E20008888878786858584848383828281818080
:100E30000000FF070000F87FB0FA80F310FA03F11A
:100E40000AD0C3F11D0303F580634FEA41504FEA16
:100E5000035202EBD12170474FF0000070470EF1B2
:100E6000020E2EF0030E5EF8046B364205D4012A02
:100E700043EB030515F5001F12D8012841EB010CC7
:100E80001CF5001F0CD80ED14FEAD17C15F5001FC0
:100E90000CEB4C0C0CF1020C08BF4CEBD37C04E0C7
:100EA0004FF0080C01E04FEAD37C0CEB4C0526FA1E
:100EB00005F606F00706B6F1040C06D20EEB860C1A
:100EC000BDE870404CF0010C6047DFE80CF0090B06
:100ED00002024FF000414FF00000A1F5002170BD6B
:100EE00019461046012851EB010418BFD4F500142F
:100EF00084BF002001F0004170BD0808A0F500117A
:100F00004FEA31017047000090EA010F48BF81F0BD
:100F1000004100F11E81421A3CBF801A89184FEA35
:100F2000D0524FF07F4C1CEA410FA2EBD15318BFB7
:100F30009CEA026F00F03B804FF0004C4CEA00202E
:100F40004CEA012121FA03FC10EB0C0C1ED202F139
:100F5000FF325FEA1C2040EBC25038BF70471CF0E4
:100F60007F0F4FEA400C18BFBCF17F4F38BF70476E
:100F7000C3F12003994008BF20F00100BCF17F4F6E
:100F800038BF7047A0F1C04000F0A6B84FEA3C005F
:100F9000000A40EBC25028BF1CF0FF0F4FEA400C84
:100FA000E6D018BFBCF17F4F38BF7047EAE79CEA34
:100FB000026F05D010EA5C0F08BF00F000407047D8
:100FC00010B500F043F800BF64FBBE3E401058BFB0
:100FD000C0F14040491058BFC1F140418142EFF398
:100FE0000080704750EA010C00F113801CF5000FDF
:100FF00058BFBCF5000F01D48842704707D710F5E1
:10100000000F58BF11F5000F15D488427047894270
:1010100070471CF5000F04D5BCF5000FF7D58142D1
:1010200070474FF0807C1CEB400F38BF1CEB410F2A
:1010300001D28142704710B500F008F892244900AF
:101040004FF000504FF08051FFF7C0BF0EF1020E7D
:101050002EF0030E5EF8044B244204D44FEA410202
:10106000B2F17F4F11D84FEA4003B3F17F4F0CD854
:101070000ED14FEAD07CB2F17F4F0CEB4C0C0CF14F
:10108000020C08BF4CEBD17C04E04FF0080C01E0EF
:101090004FEAD17C0CEB4C0324FA03F404F0070470
:1010A000B4F1040C06D20EEB840CBDE810404CF0F9
:1010B000010C6047DFE80CF0070802024FF0004027
:1010C000A0F5800010BD0846420018BFD2F1807222
:1010D00088BF00F0004010BDFF2141EAD050C0059C
:1010E000704751EA000C00F113801CF5000F58BF47
:1010F000BCF5000F01D48142704707D711F5000FEE
:1011000058BF10F5000F15D48142704789427047CF
:101110001CF5000F04D5BCF5000FF7D588427047C9
:101120004FF0807C1CEB410F38BF1CEB400F01D20D
:101130008842704780EA010081EA000180EA0100EC
:10114000FFF779BF90EA010F48BF81F000413FF5FA
:10115000E2AE421A04D882F00042A0EB0200114431
:101160004FEAD0524FF07F4C1CEA410FA2EBD15313
:1011700018BF9CEA026F4AD04FF0004C4CEA0020A6
:101180004CEA012121FA03FCB0EB0C0C0FD412F055
:10119000FE0F36D05FEA4C001DD5001240EBC25066
:1011A00038BF70471CF03F0F18BF70470BE0A2F12B
:1011B00001025FEA1C2040EBC25038BF70471CF0B0
:1011C0007F0F18BF7047C3F12003994014BF401E22
:1011D00020F00100704780084FEA122308BF7047D3
:1011E000B0FA80FCA2EB0C02CCF1280C60FA0CF0F7
:1011F00093EA122F04BF00EBC25070474FEAC3704E
:101200007047130A5FEADC1008BF7047F6E79CEAF4
:10121000026F04D010EA5C0F08BF0020704710B5C1
:10122000FFF714FF40DFF63E81F0004070470000FA
:101230005012000800000020300000006C0100087F
:10124000801200083000002080060000880100089D
:101250000000000000000000000000000102030484
:101260000102030406070809020406080000000042
:10127000000000000000000000000000000000006E
:0400000508000131BD
:00000001FF
